{
  "_format": "hh-sol-artifact-1",
  "contractName": "Voting",
  "sourceName": "contracts/Voting.sol",
  "abi": [
    {
      "inputs": [
        {
          "internalType": "uint256",
          "name": "on_id",
          "type": "uint256"
        },
        {
          "internalType": "string",
          "name": "message",
          "type": "string"
        }
      ],
      "name": "addVote",
      "outputs": [],
      "stateMutability": "payable",
      "type": "function"
    },
    {
      "inputs": [],
      "name": "getAllVotes",
      "outputs": [
        {
          "components": [
            {
              "internalType": "address",
              "name": "owner",
              "type": "address"
            },
            {
              "internalType": "uint256",
              "name": "on_id",
              "type": "uint256"
            },
            {
              "internalType": "string",
              "name": "message",
              "type": "string"
            }
          ],
          "internalType": "struct Voting.Vote[]",
          "name": "",
          "type": "tuple[]"
        }
      ],
      "stateMutability": "view",
      "type": "function"
    },
    {
      "inputs": [],
      "name": "getVotesCount",
      "outputs": [
        {
          "internalType": "uint256",
          "name": "",
          "type": "uint256"
        }
      ],
      "stateMutability": "view",
      "type": "function"
    }
  ],
  "bytecode": "0x608060405234801561001057600080fd5b50610c42806100206000396000f3fe6080604052600436106100345760003560e01c80630fcaac1b146100395780631b605b8614610055578063851b6ef214610080575b600080fd5b610053600480360381019061004e919061054e565b6100ab565b005b34801561006157600080fd5b5061006a610264565b60405161007791906105b9565b60405180910390f35b34801561008c57600080fd5b5061009561026d565b6040516100a291906107b5565b60405180910390f35b60005b600180549050811015610181573373ffffffffffffffffffffffffffffffffffffffff16600182815481106100e6576100e56107d7565b5b906000526020600020906003020160000160009054906101000a900473ffffffffffffffffffffffffffffffffffffffff1673ffffffffffffffffffffffffffffffffffffffff160361016e576040517f08c379a000000000000000000000000000000000000000000000000000000000815260040161016590610863565b60405180910390fd5b8080610179906108b2565b9150506100ae565b50600160008082825461019491906108fa565b92505081905550600160405180606001604052803373ffffffffffffffffffffffffffffffffffffffff16815260200184815260200183815250908060018154018082558091505060019003906000526020600020906003020160009091909190915060008201518160000160006101000a81548173ffffffffffffffffffffffffffffffffffffffff021916908373ffffffffffffffffffffffffffffffffffffffff16021790555060208201518160010155604082015181600201908161025d9190610b3a565b5050505050565b60008054905090565b60606001805480602002602001604051908101604052809291908181526020016000905b828210156103b557838290600052602060002090600302016040518060600160405290816000820160009054906101000a900473ffffffffffffffffffffffffffffffffffffffff1673ffffffffffffffffffffffffffffffffffffffff1673ffffffffffffffffffffffffffffffffffffffff168152602001600182015481526020016002820180546103249061095d565b80601f01602080910402602001604051908101604052809291908181526020018280546103509061095d565b801561039d5780601f106103725761010080835404028352916020019161039d565b820191906000526020600020905b81548152906001019060200180831161038057829003601f168201915b50505050508152505081526020019060010190610291565b50505050905090565b6000604051905090565b600080fd5b600080fd5b6000819050919050565b6103e5816103d2565b81146103f057600080fd5b50565b600081359050610402816103dc565b92915050565b600080fd5b600080fd5b6000601f19601f8301169050919050565b7f4e487b7100000000000000000000000000000000000000000000000000000000600052604160045260246000fd5b61045b82610412565b810181811067ffffffffffffffff8211171561047a57610479610423565b5b80604052505050565b600061048d6103be565b90506104998282610452565b919050565b600067ffffffffffffffff8211156104b9576104b8610423565b5b6104c282610412565b9050602081019050919050565b82818337600083830152505050565b60006104f16104ec8461049e565b610483565b90508281526020810184848401111561050d5761050c61040d565b5b6105188482856104cf565b509392505050565b600082601f83011261053557610534610408565b5b81356105458482602086016104de565b91505092915050565b60008060408385031215610565576105646103c8565b5b6000610573858286016103f3565b925050602083013567ffffffffffffffff811115610594576105936103cd565b5b6105a085828601610520565b9150509250929050565b6105b3816103d2565b82525050565b60006020820190506105ce60008301846105aa565b92915050565b600081519050919050565b600082825260208201905092915050565b6000819050602082019050919050565b600073ffffffffffffffffffffffffffffffffffffffff82169050919050565b600061062b82610600565b9050919050565b61063b81610620565b82525050565b61064a816103d2565b82525050565b600081519050919050565b600082825260208201905092915050565b60005b8381101561068a57808201518184015260208101905061066f565b60008484015250505050565b60006106a182610650565b6106ab818561065b565b93506106bb81856020860161066c565b6106c481610412565b840191505092915050565b60006060830160008301516106e76000860182610632565b5060208301516106fa6020860182610641565b50604083015184820360408601526107128282610696565b9150508091505092915050565b600061072b83836106cf565b905092915050565b6000602082019050919050565b600061074b826105d4565b61075581856105df565b935083602082028501610767856105f0565b8060005b858110156107a35784840389528151610784858261071f565b945061078f83610733565b925060208a0199505060018101905061076b565b50829750879550505050505092915050565b600060208201905081810360008301526107cf8184610740565b905092915050565b7f4e487b7100000000000000000000000000000000000000000000000000000000600052603260045260246000fd5b600082825260208201905092915050565b7f596f75206861766520616c726561647920766f74656400000000000000000000600082015250565b600061084d601683610806565b915061085882610817565b602082019050919050565b6000602082019050818103600083015261087c81610840565b9050919050565b7f4e487b7100000000000000000000000000000000000000000000000000000000600052601160045260246000fd5b60006108bd826103d2565b91507fffffffffffffffffffffffffffffffffffffffffffffffffffffffffffffffff82036108ef576108ee610883565b5b600182019050919050565b6000610905826103d2565b9150610910836103d2565b925082820190508082111561092857610927610883565b5b92915050565b7f4e487b7100000000000000000000000000000000000000000000000000000000600052602260045260246000fd5b6000600282049050600182168061097557607f821691505b6020821081036109885761098761092e565b5b50919050565b60008190508160005260206000209050919050565b60006020601f8301049050919050565b600082821b905092915050565b6000600883026109f07fffffffffffffffffffffffffffffffffffffffffffffffffffffffffffffffff826109b3565b6109fa86836109b3565b95508019841693508086168417925050509392505050565b6000819050919050565b6000610a37610a32610a2d846103d2565b610a12565b6103d2565b9050919050565b6000819050919050565b610a5183610a1c565b610a65610a5d82610a3e565b8484546109c0565b825550505050565b600090565b610a7a610a6d565b610a85818484610a48565b505050565b5b81811015610aa957610a9e600082610a72565b600181019050610a8b565b5050565b601f821115610aee57610abf8161098e565b610ac8846109a3565b81016020851015610ad7578190505b610aeb610ae3856109a3565b830182610a8a565b50505b505050565b600082821c905092915050565b6000610b1160001984600802610af3565b1980831691505092915050565b6000610b2a8383610b00565b9150826002028217905092915050565b610b4382610650565b67ffffffffffffffff811115610b5c57610b5b610423565b5b610b66825461095d565b610b71828285610aad565b600060209050601f831160018114610ba45760008415610b92578287015190505b610b9c8582610b1e565b865550610c04565b601f198416610bb28661098e565b60005b82811015610bda57848901518255600182019150602085019450602081019050610bb5565b86831015610bf75784890151610bf3601f891682610b00565b8355505b6001600288020188555050505b50505050505056fea26469706673582212201a9322bb114fb1ba64a193cd7d30c45ad07ce398cc93d724df11a48f1c2081be64736f6c63430008120033",
  "linkReferences": {},
  "deployedLinkReferences": {}
}